{
  "contractName": "Ballot",
  "abi": [
    {
      "inputs": [
        {
          "internalType": "uint256",
          "name": "numProposals",
          "type": "uint256"
        }
      ],
      "stateMutability": "nonpayable",
      "type": "constructor"
    },
    {
      "inputs": [
        {
          "internalType": "address",
          "name": "voter",
          "type": "address"
        }
      ],
      "name": "register",
      "outputs": [],
      "stateMutability": "nonpayable",
      "type": "function"
    },
    {
      "inputs": [
        {
          "internalType": "uint256",
          "name": "toProposal",
          "type": "uint256"
        }
      ],
      "name": "vote",
      "outputs": [],
      "stateMutability": "nonpayable",
      "type": "function"
    },
    {
      "inputs": [],
      "name": "reqWinner",
      "outputs": [
        {
          "internalType": "uint256",
          "name": "winningProposal",
          "type": "uint256"
        }
      ],
      "stateMutability": "view",
      "type": "function",
      "constant": true
    }
  ],
  "bytecode": "0x608060405234801561001057600080fd5b5060405161040338038061040383398181016040528101906100329190610073565b506100a0565b600080fd5b6000819050919050565b6100508161003d565b811461005b57600080fd5b50565b60008151905061006d81610047565b92915050565b60006020828403121561008957610088610038565b5b60006100978482850161005e565b91505092915050565b610354806100af6000396000f3fe608060405234801561001057600080fd5b50600436106100415760003560e01c80630121b93f146100465780634420e48614610062578063508b30c91461007e575b600080fd5b610060600480360381019061005b91906101bf565b61009c565b005b61007c6004803603810190610077919061024a565b610124565b005b61008661017f565b6040516100939190610286565b60405180910390f35b6000600160003373ffffffffffffffffffffffffffffffffffffffff1673ffffffffffffffffffffffffffffffffffffffff1681526020019081526020016000206000015411610121576040517f08c379a0000000000000000000000000000000000000000000000000000000008152600401610118906102fe565b60405180910390fd5b50565b60008054906101000a900473ffffffffffffffffffffffffffffffffffffffff1673ffffffffffffffffffffffffffffffffffffffff163373ffffffffffffffffffffffffffffffffffffffff161461017c57600080fd5b50565b600090565b600080fd5b6000819050919050565b61019c81610189565b81146101a757600080fd5b50565b6000813590506101b981610193565b92915050565b6000602082840312156101d5576101d4610184565b5b60006101e3848285016101aa565b91505092915050565b600073ffffffffffffffffffffffffffffffffffffffff82169050919050565b6000610217826101ec565b9050919050565b6102278161020c565b811461023257600080fd5b50565b6000813590506102448161021e565b92915050565b6000602082840312156102605761025f610184565b5b600061026e84828501610235565b91505092915050565b61028081610189565b82525050565b600060208201905061029b6000830184610277565b92915050565b600082825260208201905092915050565b7f4e6f742061205265676973746572656420566f74657200000000000000000000600082015250565b60006102e86016836102a1565b91506102f3826102b2565b602082019050919050565b60006020820190508181036000830152610317816102db565b905091905056fea26469706673582212204f415dcaae7b97154fbeaa3d88d78928bf94ad1dc4214e4bbae165ed3fc17c4864736f6c634300080c0033",
  "immutableReferences": {},
  "source": "pragma solidity >=0.4.22 <0.9.0;\n\ncontract Ballot {\n    struct Voter {\n        uint weight ;\n        bool voted ;\n        uint vote;\n    }\n    struct Proposal {\n        uint voteCount ;\n    }\n    address chairperson ;\n    mapping(address => Voter) voters;\n    Proposal[] proposals ;\n\n    modifier onlyChair() {\n        require(msg.sender == chairperson);\n        _;\n    }\n\n    modifier validVoter() {\n        require(voters[msg.sender].weight > 0, \"Not a Registered Voter\") ;\n        _;\n    }\n\n    constructor(uint numProposals) public {}\n    function register(address voter) public onlyChair {}\n    function vote (uint toProposal) public validVoter {}\n    function reqWinner() public view returns (uint winningProposal) {}\n}",
  "sourcePath": "/Users/addy/git/counter-dapp/counter-contract/contracts/Ballot.sol",
  "compiler": {
    "name": "solc",
    "version": "0.8.12+commit.f00d7308.Emscripten.clang"
  },
  "schemaVersion": "3.4.5",
  "updatedAt": "2022-03-06T05:23:39.889Z",
  "networkType": "ethereum",
  "devdoc": {
    "kind": "dev",
    "methods": {},
    "version": 1
  },
  "userdoc": {
    "kind": "user",
    "methods": {},
    "version": 1
  }
}